:020000040800F2
:10180000E0150020791900088119000883190008E3
:1018100000000000000000000000000000000000C8
:101820000000000000000000000000008519000812
:101830000000000000000000871900081D1F0008BC
:101840008B190008000000008B1900088B19000894
:101850008B1900088B1900088B1900088B190008D8
:10186000000000008B1900088B1900088B19000874
:101870008B1900088B1900088B1900080000000064
:101880008B1900088B1900088B1900088B190008A8
:101890008B1900088B1900088B1900088B19000898
:1018A0008B1900088B1900088B1900088B19000888
:1018B0008B1900088B19000800F002F800F030F8CE
:1018C0000CA030C8083824182D18671EA246AB4655
:1018D00054465D46AC4201D100F022F87E460F3EF0
:1018E000B6460FCC0126334200D0FB1A3343A24642
:1018F000AB461847701F0000801F00000023002423
:1019000000250026103A01D378C1FBD8520700D336
:1019100030C100D50B6070471FB51FBD10B510BD9D
:1019200000F0CAF91146FFF7F7FF00F0C9FE00F01A
:10193000E2F903B4FFF7F2FF03BC00F05DFE000024
:1019400070B505460C46164602E00FCC0FC5103E9A
:10195000102EFAD2082E02D303CC03C5083E042E63
:1019600007D301CC01C5361F03E021782970641C20
:101970006D1C761EF9D270BD0748804707480047A6
:10198000FEE7FEE7FEE7FEE7FEE7FEE7044805495F
:10199000054A064B704700002D1F0008B9180008C3
:1019A000E00F0020E0150020E0110020E0110020F1
:1019B0007047000030B5441C03E00178401C00294A
:1019C0000DD08107F9D10B4BDD0104C8D11A914329
:1019D0002940FAD0001B0A0603D0C01E30BD001BF0
:1019E00030BD0A0401D0801E30BD0902FCD0401E6B
:1019F00030BD000001010101F8B5042A2CD3830792
:101A000012D00B78491C0370401C521E83070BD068
:101A10000B78491C0370401C521E830704D00B78BE
:101A2000491C0370401C521E8B079B0F05D0C91A1E
:101A3000DF002023DE1B08C90AE0FFF781FFF8BDA5
:101A40001D4608C9FD401C46B4402C4310C0121F5F
:101A5000042AF5D2F308C91A521EF0D40B78491C97
:101A60000370401C521EEAD40B78491C0370401CC2
:101A7000012AE4D409780170F8BD01E004C0091F0F
:101A80000429FBD28B0701D50280801CC90700D036
:101A90000270704700290BD0C30702D00270401CAF
:101AA000491E022904D3830702D50280801C891EA7
:101AB000E3E70022EEE70022DFE70000024670B510
:101AC0000A4392072AD11E4DEE0104C808C9541BCF
:101AD0009443344017D0D0B2D9B2401A2106014302
:101AE00010D190B299B2401A210401430AD11002D8
:101AF0001902000A090A401A2102014302D1100EFC
:101B0000190E401A70BD9A42DFD010BA19BA884235
:101B100001D9012070BD0020C04370BD02780B7850
:101B2000401C491C002A09D09A4207D102780B7840
:101B3000401C491C002A01D09A42EFD0D01A70BD37
:101B400001010101002203098B422CD3030A8B42BD
:101B500011D300239C464EE003460B433CD40022A5
:101B600043088B4231D303098B421CD3030A8B42B7
:101B700001D394463FE0C3098B4201D3CB01C01A85
:101B8000524183098B4201D38B01C01A5241430950
:101B90008B4201D34B01C01A524103098B4201D33E
:101BA0000B01C01A5241C3088B4201D3CB00C01AAB
:101BB000524183088B4201D38B00C01A5241430823
:101BC0008B4201D34B00C01A5241411A00D2014648
:101BD0005241104670475DE0CA0F00D049420310E1
:101BE00000D3404253409C46002203098B422DD330
:101BF000030A8B4212D38901FC2212BA030A8B42D8
:101C00000CD3890192118B4208D3890192118B4226
:101C100004D389013AD0921100E08909C3098B42AB
:101C200001D3CB01C01A524183098B4201D38B01EE
:101C3000C01A524143098B4201D34B01C01A524191
:101C400003098B4201D30B01C01A5241C3088B42D6
:101C500001D3CB00C01A524183088B4201D38B00C1
:101C6000C01A5241D9D243088B4201D34B00C01A4B
:101C70005241411A00D201465241104663465B1060
:101C800001D34042002B00D54942704763465B10A8
:101C900000D3404201B50549002802DC491C084038
:101CA00000E00846C046C04602BD00BFFFFFFF7F00
:101CB0007047704770477047754600F025F8AE468C
:101CC000050069465346C008C000854618B020B5D7
:101CD000FFF75CFE60BCB64600260027C0C5C0C545
:101CE000C0C5C0C5C0C5C0C5C0C5C0C5403D490808
:101CF00049008D46704710B50446C046C046204690
:101D0000FFF717FE10BD00000048704700000020DC
:101D1000F0B585B01E4617460D460446006E049089
:101D200020460C305C210191FFF7C5FE20460ECD08
:101D30000EC001218802E060049820660391080229
:101D40003818206267620A9F049630463946FFF7CA
:101D5000B0FE03250B990A462A400420831A0C9EE4
:101D6000002A029300D0F61AAE43730B01D0039BF6
:101D70005E03A664002A029A00D08918049A61645E
:101D80001540461B002D00D0BF1B2C213846FFF705
:101D9000D9FEE062002D02D00498801900E004987A
:101DA000A062204600F022FE5A486066204601F0FC
:101DB00043F9002806D40D980199039A625460658E
:101DC000002000E0206305B0F0BDC046F0B585B04E
:101DD0000F460446406E4F4988420ED15C20205C7D
:101DE00000280DD01D4616463846FFF7E3FD212892
:101DF00009D31E4820631E4D35E01C4D0C3531E0E3
:101E00001A4D24352EE0029504A920463A4600F0EA
:101E1000D5FE002819D403AA2046394601F0B6F9A8
:101E2000002815D41620864303A80188049A029836
:101E300000902046334601F011FA05460498002D23
:101E40000BD40021816185880DE0054620630AE0FE
:101E5000054604200499095E01E00421415E204604
:101E600000F058FF256328B205B0F0BDCCD8FFFFC5
:101E7000CCD80000F8B516460546406E254A90427B
:101E800011D15C20285C00280FD01C466A462846E9
:101E900000F02AFF204F002834D40098818B0907D6
:101EA00008D4BC1C03E01C4C01E01B4C18342C6310
:101EB0002046F8BD8268012C04DB511C02D1153785
:101EC0002F6324E081690B19934204D222463346E2
:101ED00001F018FA0FE0541A012CF0DB22463346C9
:101EE00001F010FA39461531884204D10098816911
:101EF00009198161DCE7002804D400988169091977
:101F0000816101E0286304461537BC42D0D100242A
:101F1000CEE7C04615030920D8D8FFFF0248016864
:101F2000491C01607047C046DC0F00200120C0063C
:101F3000424908607047C04670B501210B062C4825
:101F400002689A4302604A0604681442FCD10C04F9
:101F5000056825430560274C0568641C02D04E04C3
:101F60003540F9D0002C01D0244C00E0224CC5684B
:101F70002543C56004681C43046003681342FCD019
:101F80000907C2680A43C2601D490A6802231A434E
:101F90000A607F21090282688A438260816819434E
:101FA0008160416B07220A43426316480421816124
:101FB0000168154A0A400260052109070B68134AA7
:101FC00013400B601523DB0104681C430460846824
:101FD0001C4384600F231B03046A9C430462036A4E
:101FE0000362501C0A6802430A60094870BDC0467B
:101FF000001002400000F0FF02080220031002203F
:10200000002002400004005015F0DFFFFFFFFF3FFB
:102010000090D00380B5EFF3108072B6064948688F
:10202000421C06D00A6882F30888044A116080477F
:1020300080BD00F0EFF8C0460038000808ED00E071
:10204000F0B587B001900292D00700D0D7E00D46DE
:102050000120039006046B4F38683042FCD17D208C
:1020600084003868400307D50A2000F0C7FA641ED0
:102070002004F6D100F0CEF87868002805D538465F
:10208000083861490160614901603968604801436D
:1020900039607A6802210A437A603F22D200019BAC
:1020A0001B0A13407C689443E2187A607A683243D2
:1020B0007A603A683242FCD13A6802433A60786802
:1020C0008843786006A90020088006A90988029A3A
:1020D000914200D38EE07968039A1143796006A992
:1020E0000A8805905219D2790492049A1302059C29
:1020F0000493120E23029A1805920A88049B059CE9
:102100000594521992791A430492049A1302059C79
:102110000493120E23029A1805920A88049B059CC8
:102120000594521952791A430492049A1302059C99
:102130000493120E23029A1805920A88049B059CA8
:102140000594521912791A430492049A1302059CB9
:102150000493120E23029A1805920A88049B059C88
:1021600005945219D2781A430492049A1302059CDA
:102170000493120E23029A1805920A88049B059C68
:102180000594521992781A430492049A1302059CFA
:102190000493120E23029A1805920A88049B059C48
:1021A0000594521952781A430492049A1302059C1A
:1021B0000493120E23029A1805920A88049B059C28
:1021C0000594AA5C1A430492059A049B0988019C11
:1021D0000B5109194A6039683142FCD13968039AB8
:1021E000114339607968914379600699083106AAEC
:1021F00011806AE70398C00779680143796007B0E6
:10220000F0BDC0461020024023016745AB89EFCDE9
:10221000FB830000BFF34F8F034804490160BFF305
:102220004F8F00BFFDE7C0460CED00E00400FA054B
:10223000F0B5B5B01D4616460091074609ACB02171
:102240002046FFF738FC80213846224600F098F8F7
:10225000012E07D0002E25D109A90A22009800F0EE
:1022600041F81FE0002D1DD02C460020089007905B
:102270000690059001AE10273046009D29463A464B
:10228000FFF7BAFB09A90A22284600F02BF82846D6
:1022900021463A463B4600F063F8204631463A462E
:1022A000FFF7AAFB35B0F0BD18B503796A46537045
:1022B00003781370037A9370037BD37001235C1A45
:1022C00003231C40145D04710224641A1C40145D35
:1022D00004725C1A1C40145D047349421940515C3D
:1022E000017018BD70B516460C4605461001091858
:1022F000284600F015F8F0B2012807D9761EF0B292
:1023000000012118284600F0E1F8F4E70020102829
:1023100005D0215C2A5C4A402A54401CF7E770BD76
:10232000B0B504460020102805D00A5C235C534059
:102330002354401CF7E7601C0121AD4DA847A01CA9
:102340000221A847E01C0321A8470020A949102822
:1023500004D0225C8A5C2254401CF8E7B0BDC04621
:1023600010B5884208D8134606E00A78047854402D
:102370000470491C401C5B1E002BF6D110BD0000F0
:10238000F0B58BB013460D460146EA08099318468E
:10239000FFF732FB6909C8B2059080001C30C0B25B
:1023A0000390002002900D4601910491E9B2039838
:1023B00088426BD98A00099807921718381F02784B
:1023C00043781B029A188378C0780002C018000472
:1023D0008018020E060C030A049CE4B2A14208977E
:1023E00019D1DBB22A4C0A92E35C2A46029DECB278
:1023F00028A73F5D5F40264C0A9BE35C0693019B48
:10240000D3180493C0B2205C0A90F0B2235C6D1C18
:102410000295154614E0059C082C0ED107240C40AB
:10242000042C0AD11A4CA25C0A92F2B2A25C069267
:10243000DAB2A35CC0B2275C02E0069607460A92B5
:102440000598081A8000099C215C20184278120225
:1024500051188278C07800028018000440180A9948
:102460000906069AD2B212045118DAB21202891879
:10247000FAB28918414007982154080C089A9070C4
:10248000080ED070080A50706D1C8FE70BB0F0BDBD
:102490006436000801020408102040801B3600004A
:1024A00070B500231C46072B0DD845B2ED09154029
:1024B00046006E4001250D406D4205406C405B1C9E
:1024C00049083046EFE7E0B270BD0000F0B58FB0CC
:1024D00009900020102807D0099A125C0B5C534029
:1024E0000BAA1354401CF5E70021102967D00BA854
:1024F0000A910A994118CE788F783B460597734028
:1025000002930A9A805C4A78069201460446079034
:102510005140039108465840C1B209201B252A4664
:10252000324B9847314B049020467840C1B2042486
:1025300020462A461F469847089006987040C1B228
:1025400020462A46B8470446049844402746774028
:1025500007984640F1B2022630462A46234B984758
:1025600078400A99099A51180191C870089F0499F6
:102570004F400897059847400298C1B230462A4616
:102580001A4B98477840019FB870069844400599C7
:102590004840C1B230462A46144B98476040787094
:1025A0000798089C44400398C1B230462A460F4B16
:1025B00098470A996040099A5054091D95E7099D6A
:1025C000681C01210A4CA047A81C0221A047E81C56
:1025D0000321A04700200749099B102804D01A5C5A
:1025E0008A5C1A54401CF8E70FB0F0BDA124000823
:1025F000A922000864370008FEE7000081B0054901
:102600000A6800920A68009B1B189A42FAD301B02C
:102610007047C046DC0F002070B500251E4C00F04E
:102620003FF8FF2803D10A20FFF7E8FFF7E780070C
:102630000AD46D1CA54207D800F088F9062000F0E6
:10264000BBF900F069F9EAE700F080F9C72000F073
:10265000B3F900F061F90025104EA8087D2809D2D1
:10266000012080023168414031603220FFF7C6FF0F
:102670006D1CF2E7002500F013F8FF2803D132208B
:10268000FFF7BCFFF7E7C00705D03220FFF7B6FF22
:102690003235A542EFD970BDB80B000014040050CC
:1026A0001CB500F053F9052000F086F9002000F079
:1026B00083F901AC207000F02FF920781CBD0000D8
:1026C000F0B58FB0814D284618388149016062B657
:1026D000FFF732FC7F4880494160FF2109062A68E4
:1026E0008A430324A107511829600025856007212A
:1026F00001607A480068400300D5E5E000F036F953
:1027000077480168214301602005764A11688143BA
:1027100011600120009000051168014311605069AB
:1027200071490840506100F01FFB0E956F4A107907
:102730000DA9087050790CA9087090790BA9087040
:102740006B4C6CA108262046324601952B46FFF7BC
:102750003DFB01460EAA042320460391FFF78AFBA6
:10276000002801D5FFF756FC0EA8007840B20028DB
:10277000039A04D4FFF74EFC00200FB0F0BD0DA863
:1027800000780EA9497881420BD10CA800780EA9D7
:102790008978814205D10BA800780EA9C9788142B9
:1027A000E8D0564F564D584C114602960129E1DBB0
:1027B0004C4B58694C4A10405861BB1D4C482A4646
:1027C000FFF758FB012864DB2878BA2802D0687824
:1027D000BF285ED100260A96099608960796B6B2DB
:1027E000B81C864208D2A819811C012207AB4948AF
:1027F000FFF71EFD1036F2E769880020688049BAAD
:1028000006AA11803F49029EB8420ED02A181279BA
:1028100051403246002A06D04B08C90700D0634019
:102820001946521EF6E7401CEEE7C84340BA05A918
:102830000880A88840BA04AA1080098806A80288DF
:102840000020914222D104A90988304A91421DD129
:10285000E97909042A89120412BA5118AA791206D0
:1028600089183B22D202914210D8009EB0021D4B23
:102870005A6902435A612648081829461231F20261
:10288000FFF7DEFB0198401C0190304603990028B9
:102890008CD10198000600D16CE70020C04328606D
:1028A00068600EAC60782871A0786871E078A871D3
:1028B00008220E482946FFF7C3FB2078C00700D145
:1028C00058E7FFF7A9FE55E7FFF7A4FC20ED00E06D
:1028D0000018000810E000E0FFF90000102002409E
:1028E0003410024000040050FFFBFFFFF8FF010816
:1028F0007408002066772E62660000000E08000053
:1029000060000020FFFF000008840000717A0000D2
:10291000003800085436000881B0334801680906C1
:10292000FCD40121C903104A116001684905890FCF
:1029300001D04168F9E77D2000900098002802D07E
:102940000098401EF8E701B07047C046264801686D
:10295000C904890FFBD101680906FCD40120C00716
:10296000014908607047C046180000500120410628
:102970000E4A1160BFF34F8FBFF36F8F00030C49F6
:102980000A6802430A600B48002101604160C121CE
:10299000890002680A4302601721090242680A435B
:1029A0004260016840220A430260704780E100E013
:1029B00040100240003001400B490A68520600D521
:1029C0004A680A689207FCD508710868C007FCD0FD
:1029D00008790A681206FCD40022042A02D24B6845
:1029E000521CFAE77047C04608300140F8B5456C04
:1029F000002D0DD00146452084008F6C143F3846D1
:102A000000912146FFF79EF80646B808452800D2F7
:102A1000F8BD00200746B04203D2401C79004F1C8D
:102A2000F9E72E70681C0721FFF743F82846143099
:102A3000010EE974010CA974010A69742874380E36
:102A4000E873380CA873380A68732F73FF20E87294
:102A5000A872687228720098456C297861432869C9
:102A6000FFF727F8A868E9688843A860F0B200215A
:102A700001228142CCD22B6999541219491CF8E7E2
:102A800070B5416C8A68501C0ED00C78002004236D
:102A90000546AC4211D00126AE40164206D045266E
:102AA000B6009B196D1CF4E7002070BD08694C68E6
:102AB000C45016438E60C018001F70BDF8B50B4699
:102AC00001210C469C40456CAF6827421AD0090290
:102AD0000E4614365E432B699E190023002A13D03C
:102AE0003278009381231340012B009B1A460CD1AE
:102AF000436830893246143200029847009B0246F0
:102B0000AF6802E0002203E01A463370A743AF60CB
:102B10001046F8BDF8B5426C9368D068184218D0DA
:102B2000157800273E460097BD4210D01846F84061
:102B3000C00707D010698457002C03D4801904897A
:102B40008C4208D04520800036187F1CECE70098A6
:102B5000F8BD0020F8BD51684160F8BDFEB5426C7B
:102B60009368D1680B408B4226D101900023D84353
:102B7000029011781D461E46A94215D01469E71827
:102B80007F685068C71BB74209D9E456002C00DAA9
:102B90003746002C2C4600DA029C02943E46452023
:102BA00080001B186D1CE7E70299002904D401225C
:102BB0000198FFF783FFFEBD0020FEBDF0B587B092
:102BC0000D4604462320C743002A03910094059232
:102BD00017D0104600F0B6F80490A36AE46A1946CC
:102BE00028312246002A10D078004018808C002816
:102BF00004D10888022801D3401E08802C31521EBF
:102C0000F0E7A36AE46A0020049038462330069077
:102C100002931946243104200190C043061D00226E
:102C2000944219D078004018008D002811D10598E1
:102C3000002803D00868049B984223D0B0B28B8848
:102C40008342154600D3069D834200D33346069542
:102C50001E462C31521CE3E7069F781C0ED02C2018
:102C60007843029E34180599002909D03118486A22
:102C70002431049A9042039D08D01CE019482CE0AE
:102C8000039D23E0CC191746039D029E2C20784318
:102C90003218138D002B0ED0069790892832010927
:102CA000009F39830F210140481EF8610C48834280
:102CB00009D2181D08E0049808602C2078433018C9
:102CC0000199018502E0001D1080069F2C602C20D8
:102CD00078433018791C8180002007B0F0BDC046D1
:102CE000FBFF0000E9D8FFFFB0B5034614480129F7
:102CF0000CDB2C241D5F8D4208DB4C43996A611864
:102D00002C3911608988002901D00020B0BD801CB9
:102D1000B0BDC04610B50246094801290CDB2C2382
:102D2000D45E8C4208DB4B43916A591828390A88D3
:102D3000002A02D00020088010BD801C10BDC046B3
:102D4000E6D8FFFF10B500220649202A08D8835C88
:102D5000002B05D021244C435C40521C2146F4E753
:102D6000084610BD0515000010B588B00E480421B6
:102D700001600024079406940C480590FFF7CCFDF1
:102D80003220FFF73BFC03940920C0010290084861
:102D9000019080200090074805A9074A074BFEF7DD
:102DA000B7FF08B010BDC046180400501136000827
:102DB000DC08002074080020DC0D00205C0D0020E1
:102DC000F0B595B01746C2681190056A0F2F07DB62
:102DD000491C8CB2A24206D908462403002709E008
:102DE0000C03084606E05907002000290446074660
:102DF00000D5AEE00C900F2656431F9810901E98F9
:102E00000F901D980B901C980A901B9814901A987C
:102E100012900420184003900220184009900120CD
:102E200003400D9302900002089000200495012EAB
:102E300000DA8CE0002800D089E0F817400E38183E
:102E4000C3117F218843404213900020059400283D
:102E500063D1002B61DC1198016A089A00920191FC
:102E6000069319020B19142100220E92079300F009
:102E70005BFB0F9B109A1399791849006D18002875
:102E800043D10E2F41DC1399C9197F293DDC0D98E0
:102E9000002803D028881299884231D1002B0C9841
:102EA00000D01880002A00D01760149900294CD057
:102EB000344609990029129900D129880A9A00926A
:102EC0000B9A019282B211983B46149EB047224958
:102ED000411801293ED8C449491C8842109A0F9BC9
:102EE00026460DD11198016A089A00920191142189
:102EF0000022079B00F018FB0F9B109A002829D492
:102F0000AD1C761E7F1C0E98B9E71399803913917A
:102F1000069B5B1C049D059C99E71199C9680C9A56
:102F2000521C0C9292B20027914200D80C97914209
:102F300001D83C4602E0029B1B03E418914200D9F1
:102F400075E70399002904D171E7002002E0002809
:102F500000D4A54815B0F0BD57270000F0B58BB0E0
:102F6000044609A803800AAE3280E269258B07AFC8
:102F7000059708AF04970396002B00D118460290DE
:102F8000104801900091012320462946FFF718FFC1
:102F900001469548814201D0084600E046300028AD
:102FA0000DD4109A08A90988002A05D00D01079BA5
:102FB0005D196D1C158000E0079BE36121830BB058
:102FC000F0BDC046C92F00087FB50D4602A90524F3
:102FD00000940191110159184E1C31040B0A002470
:102FE0001522214600F0A0FA002820D402A800886B
:102FF000A8421AD1099802A949880088814214D1AF
:1030000002A8007983220240802A0ED1002905D12E
:1030100029B2002902D54021084006D0089800288E
:1030200006D0B1B20088884202D18A4C00E0044642
:10303000204604B070BDC046F0B58FB005460EA95D
:10304000002008800121079109020A91824C08940E
:10305000074680B2E968814249D909970CA902273D
:103060000097019100030A994018031F15210022BF
:103070002E46284600F058FA00286DD40CA8008887
:103080003849884202D10EA8028807E0089880B229
:103090007149884233D10EA80288089230460BA9A4
:1030A0000097019111030A9A89188B1E152100229D
:1030B00000F03AFA00284FD40E98401C0EA9088060
:1030C000099FBAB20BA909888A423A4600D80A4633
:1030D000614B9942354600D01746A2B28A42224639
:1030E00000D30A465C4B9942B3D01446B1E72004A2
:1030F00008D1B8B25849884204D100200CE03A4DBA
:103100002F352AE0A0B2B9B2081A0799C90388423C
:1031100001DB601C00E0781C089A4221685290B2E2
:103120004D49884202D0304D273516E0284600250B
:1031300045638563C5630DA905910EA904910395A7
:10314000029507490191009529462A462B46FFF72B
:1031500037FE2549884200D0054628460FB0F0BD0D
:103160006931000829040000002906D03A4A91423A
:1031700005D1002B07D1343002E03C3000E038307C
:103180000168491C016033487047C04670B588B07B
:1031900015460446C269068B06A8059007A8049048
:1031A0000023039302910F4801900093204631467B
:1031B000FFF706FE01460C48814201D0084600E0B8
:1031C000463000280CD407A90988002D05D00B0132
:1031D000069AD3185B1C2B8000E0069AE2612183DB
:1031E00008B070BDED310008A8D8FFFFB0B58EB0B3
:1031F000184D002905D0184CA14202D009B200296F
:1032000003D42C4620460EB0B0BD11015918491CFC
:1032100002AA2E230093019209040B0A152100240F
:10322000224600F081F9002811D402A84088002825
:10323000E7D102A80079C2210140C029E1D112984A
:1032400002A90D31FEF73AFC0028DAD1DAE704468C
:10325000D8E7C046AAD8FFFFFFFF0000F0B593B043
:10326000059314460E4607460425525F07A82E21F3
:103270000091019033021621384600F055F90028DC
:1032800036D4039506A904910220009001913009DB
:1032900000033107C90E0818831E14210025384683
:1032A0002A4600F041F9A681276065612582E68102
:1032B0000599A1830999A160049909880DB2E58057
:1032C0000F4A07A90B79D90703D1190603D409328C
:1032D00011E0511C10E099070CD4D11D002D0BD525
:1032E000039C234008D107A94988002900D0104633
:1032F000014601E008321146084613B0F0BDC04651
:10330000E3D8FFFFF0B593B00A9314460D46064686
:10331000FB2128460591FEF715FC32460F906119F6
:1033200033680020C4430D935B6A1E462E36029616
:103330000493083303930B9426460E920C91A942F2
:1033400000D8ECE00F9887B2692F01D2002106E087
:10335000384669387C21FEF7F5FB0E9A411C8CB289
:10336000B0B2A0424FD0002C099104D0108AA042E4
:1033700005D1D68900E0968910A90E8010E0D0888A
:1033800010A900910121C903014300230D98224691
:10339000FFF7E4FD002800D5C1E010A806880E9ACA
:1033A0000421525E0D98416A01231B020093019192
:1033B0003302162100F0B8F8002800D5AFE00498D9
:1033C0000179C80700D08EE0080600D48EE0880797
:1033D00000D58EE053480B30490700D59FE0062109
:1033E0000E9A515E0B9B994200DD98E00499887813
:1033F000C97809020818A04200D08EE05561099EE4
:1034000016821098D081002C09960CD00F9880B2AB
:10341000692805D3693F7C213846FEF793FB0F46A8
:103420007800039901E0780002990C180C98471B6A
:103430002846059E3146FEF785FB0B46701A8742EB
:1034400000D307460E9A9068401B874200D3074678
:10345000002F51D020880B9989B288424FD00107A4
:1034600050D00121890388424FD8079308970695C9
:103470000424125F11A90525009501910702172167
:103480000D983B4600F050F8002848D411A8007968
:10349000C10728D1010629D581072AD4400736D58E
:1034A0000F9880B211A94988814233D10E9E325FB4
:1034B0002846089D00950A9C0194074307983B18ED
:1034C00017210D9800F030F8002828D406996918C3
:1034D000716164190D460A940F99491C0F91324687
:1034E0000C99099E2BE70F48401D18E00D480D3040
:1034F00015E00C480C3012E00A480E300FE0094885
:10350000801C0CE00748401C09E0064807E005481D
:10351000801D04E00348C01C01E00248001D13B0F8
:10352000F0BDC046DFD8FFFFF0B587B01C4606915E
:103530000546476C1E0AB1B2FFF7ECFA7968491CE0
:1035400079600D9B0C9A002811D04160E96C491CF0
:10355000E964452189004078484339690818E1B297
:10356000411814311846FEF747FA00270EE003977A
:1035700004960594032006990140012909D11C46AF
:103580002B6805981146224698470746384607B0EB
:10359000F0BD02930692286D401C28652846FFF76F
:1035A000DDFA07462846FFF76BFA002827D00146C8
:1035B00004980881022008700A460191FF210598AD
:1035C000884345218C0051786143039E326952182B
:1035D00014322B68214614399847054601984078E3
:1035E0006043316908180599C9B24118143102982D
:1035F000069AFEF701FA002DC8D02F46C6E72B68C1
:1036000005980699029A98470028BED1BEE70000A7
:10361000F8B514460D460646FFF798F90B200C4FF7
:10362000B847300CC0B2B847300AC0B2B847F0B2A1
:10363000B8470020B847002D06D00020FFF7BCF99E
:103640002070641C6D1EF6E7FFF766F90020F8BDD8
:10365000B9290008C878EA3C37AA588C8C1CE15D6F
:1036600066A8B0BD637C777BF26B6FC53001672BBA
:10367000FED7AB76CA82C97DFA5947F0ADD4A2AF66
:103680009CA472C0B7FD9326363FF7CC34A5E5F174
:1036900071D8311504C723C31896059A071280E222
:1036A000EB27B27509832C1A1B6E5AA0523BD6B376
:1036B00029E32F8453D100ED20FCB15B6ACBBE39E6
:1036C0004A4C58CFD0EFAAFB434D338545F9027FD2
:1036D000503C9FA851A3408F929D38F5BCB6DA218B
:1036E00010FFF3D2CD0C13EC5F974417C4A77E3DB7
:1036F000645D197360814FDC222A908846EEB8140D
:10370000DE5E0BDBE0323A0A4906245CC2D3AC62CF
:103710009195E479E7C8376D8DD54EA96C56F4EADA
:10372000657AAE08BA78252E1CA6B4C6E8DD741FEB
:103730004BBD8B8A703EB5664803F60E613557B9AE
:1037400086C11D9EE1F8981169D98E949B1E87E968
:10375000CE5528DF8CA1890DBFE6426841992D0F17
:10376000B054BB1652096AD53036A538BF40A39E67
:1037700081F3D7FB7CE339829B2FFF87348E434450
:10378000C4DEE9CB547B9432A6C2233DEE4C950BAC
:1037900042FAC34E082EA16628D924B2765BA2490C
:1037A0006D8BD12572F8F66486689816D4A45CCC2B
:1037B0005D65B6926C704850FDEDB9DA5E154657FE
:1037C000A78D9D8490D8AB008CBCD30AF7E4580534
:1037D000B8B34506D02C1E8FCA3F0F02C1AFBD0340
:1037E00001138A6B3A9111414F67DCEA97F2CFCE11
:1037F000F0B4E67396AC7422E7AD3585E2F937E8AC
:103800001C75DF6E47F11A711D29C5896FB7620EED
:10381000AA18BE1BFC563E4BC6D279209ADBC0FECE
:1038200078CD5AF41FDDA8338807C731B11210597B
:103830002780EC5F60517FA919B54A0D2DE57A9F6D
:1038400093C99CEFA0E03B4DAE2AF5B0C8EBBB3C62
:1038500083539961172B047EBA77D626E1691463E6
:1038600055210C7D7438000800000020E015000090
:04387000FC18000838
:04000005080018B91E
:00000001FF
